S01700004763634170706C69636174696F6E312E737265635B
S11300000C942A000C9447000C9447000C9447006D
S11300100C9447000C9447000C9447000C94470040
S11300200C9447000C9447000C9447000C94470030
S11300300C9447000C9447000C9447000C94470020
S11300400C9447000C9447000C9447000C94470010
S11300500C94470011241FBECFE5D4E0DEBFCDBF12
S113006010E0A0E6B0E0E4E4F1E002C005900D92F7
S1130070AC39B107D9F710E0ACE9B0E001C01D928A
S1130080AC39B107E1F70E9490000C94A0000C94E5
S1130090000085BB90989198929A87EA91E601971F
S11300A0F1F700C00000929887EA91E60197F1F712
S11300B000C00000089585BB9198909A929A87EAAF
S11300C091E60197F1F700C0000092989098089586
S11300D08FEF81BB84BB87E893E10197F1F700C000
S11300E0000088E30E9449008CE00E94490086E0F9
S11300F00E94490081E00E94490080E80E94490072
S11301000895CF93DF93EC018881882331F0219601
S11301100E945B0089918823D9F7DF91CF910895DC
S11301200E94680080E690E00E94810087EA91E6E0
S11301300197F1F700C0000088E10E944900FCCF5C
S1070140F894FFCF5D
S1130144416B736861792042616C617075726520DA
S11301546973206E6F77207072616374696963696F
S11301646E6720666F7220656D62656464656420E1
S10F017470726F6772616D6D696E6700D8
S9030000FC
